:020000020000FC
:0200000033C00B
:02002C0018C3F7
:0200300031C3DA
:020038007BC08B
:020060001895F1
:100068000FEF0DBF08E00EBF00E805BF05BF0E94F7
:1000780097020E9474000E94C7000E94B9010E9462
:10008800F4020E9465030E94F803789411270E94E5
:100098007901E4E6F4E00E942B0210E40E94790161
:1000A800ECE0F5E00E942B02E0ECF4E015E00E94A1
:1000B80010020E9452010E949D020E94A1020E9409
:1000C800A5020E949F02002711271A95F1F70A95A9
:1000D800D9F70E94A1020E946C030E940F04FBCF73
:1000E8000FE107BD02E004BD02E000936E0004E0EA
:1000F80005BD0AE000930001002700931E00089543
:1001080003E00093890000938B0007EE00938800BA
:1001180000938A0000270093800009E00093810083
:1001280004E000936F0008950F920FB60F920F939B
:10013800F09AF19AF29AF39A009100010A9539F42B
:100148000AE0F49AF59AF69AF79A0E941C0300932B
:1001580000010F910F900FBE0F9018950F9308E2B2
:10016800000000000000000000000A95C9F70F9188
:1001780008950F9309E10E94B2000A95E1F71A95D4
:10018800C9F70F9108953B9A3A9A399A4398429839
:10019800419818E20E94BD0010E20E94FA0018E29D
:1001A8000E94BD001CE20E94F5000E94B20018E205
:1001B8000E94BD001CE20E94F5000E94B20018E2F5
:1001C8000E94BD000E944B011EE00E94F50011E054
:1001D8000E94BD0021E031E00E94590108950E946B
:1001E800FD00439842980E94310112950E94310106
:1001F80008951F930E94B2000E94B2004398429A49
:100208000E9410011F930E9410011F91110F90F37B
:10021800439842981F9108950F9300270AB90FEF4A
:100228000BB9419A00000000000000000000000027
:1002380000000000000000000000000000000000B6
:1002480000000000000000000000000000000000A6
:100258001BB1000041980F9108950F9300EF0AB960
:10026800000000001BB900000000419A00000000D7
:100278000000000000000000000000000000000076
:10028800000000000000000041980F91089511E05F
:100298000E94F5001AE00E94BD00089512E00E9435
:1002A800F5001AE00E94BD00089514E0222309F029
:1002B8001260332309F011600E94F50011E00E94DA
:1002C800BD000895089510610E94F5000E94B200D3
:1002D80011E00E94BD00089510640E94F5000E947C
:1002E800B20011E00E94BD00089510680E94F50058
:1002F8000E94B20011E00E94BD0008954398429AFE
:100308000E9410011F930E94100111E00E94BD007D
:1003180042981F910895439A42980E94310112957C
:100328000E9431010E94B2000E94B20011E00E94B6
:10033800BD000E94820143980895439A429A0E9400
:1003480010011F930E94100112951F700F91007FDA
:10035800102B1F930E94B2000E94B20011E00E946D
:10036800BD000E9482011F9108950027009301019A
:1003780008EC0093020102E0009303010895F69B44
:100388000895F698009102010A950093020109F078
:10039800089508EC0093020100910301013009F46B
:1003A80008950230B1F4109101011395153031F41C
:1003B8001127109301010E94520108951093010121
:1003C80028E018E02F930E9467012F912A95C9F71A
:1003D800089501E0009303010895153014F400E036
:1003E80001C000E41550110F110F110F100F0E94DA
:1003F80079010E9418020895153014F400E001C034
:1004080000E41550110F110F110F100F0E94790100
:10041800122F0E9420020895110F110F110F0E9430
:1004280079010E942B0208950D91002321F0102FCD
:100438000E948F01F9CF0895112341F01A950D916B
:10044800002321F0102F0E948F01F6CF08951591F7
:10045800112319F00E948F01FACF08954C696E6537
:100468003A3020204C696E653A3120204C696E651F
:100478003A3220204C696E653A3320204C696E650B
:100488003A34202000004C696E653A30303500005F
:100498004C696E653A30303600004C696E653A300A
:1004A800303700004C696E653A30303800004C69CE
:1004B8006E653A303039000020202020202020208E
:1004C80000006162636465666768696A6B6C6D6E7B
:1004D8006F7071727374757678797A2E2C3C3E3F02
:1004E80021404748494A4B4C4D4E4F505152535466
:1004F80055566162636465666768696A6B6C6D6EA0
:100508002D2A230048656C6C6F202020576F726C71
:100518006420202048617665206120204E6963654B
:10052800204461790000269A279A209A08952E98E7
:1005380008952E9A08952F9808952F9A0895289827
:100548000895289A089500910401003039F40E9412
:100558009D020E94A1020E94A5023EC0013039F40A
:100568000E949D020E94A1020E94A30235C002308F
:1005780039F40E949D020E949F020E94A5022CC08D
:10058800033039F40E949D020E949F020E94A30238
:1005980023C0043039F40E949B020E94A1020E94E9
:1005A800A5021AC0053039F40E949B020E94A102DC
:1005B8000E94A30211C0063039F40E949B020E94D7
:1005C8009F020E94A50208C00E949B020E949F02EF
:1005D8000E94A302002701C0039500930401089517
:1005E800219A229A00270093890000938B000E9489
:1005F80006030E94110306E000936F0000E00093D9
:10060800800008951BEC04C000910601100F00C083
:10061800109306011093880008951FEB04C0009101
:100628000701100F00C01093070110938A00089566
:100638000F9300910801002321F40395009308010A
:1006480008C0002700930801299A2A9A03E000931A
:1006580081000F9108950F920FB60F920F9329986A
:1006680000910501027051F000270093810000936A
:100678008500009384000093050103C001E0009306
:1006880005010F900FBE0F900F9118950F920FB69E
:100698000F920F932A9800910501017051F00027DD
:1006A8000093810000938500009384000093050166
:1006B80003C002E0009305010F900FBE0F900F9149
:1006C800189501E00093090103E000930A010895D9
:1006D800F79B0895F798009109010A95009309017D
:1006E80009F0089501E00093090100910A01013021
:1006F80071F500910B010030A1F400910C010A95ED
:1007080000930C0109F06FC01CEB0E940C031EEC57
:100718000E94170308EC00930C0102E000930B0100
:1007280062C0023081F400910C010A9500930C011B
:1007380009F059C00E94110309E600930C0100E07A
:1007480000930B0150C0002700930B014CC00230EE
:1007580009F40895033009F042C000910B010030FC
:1007680089F400910C010A9500930C0109F03BC033
:100778001CEB0E940C031EEC0E94170301E000937F
:100788000B0131C0013091F400910F01027009F49E
:100798002AC01AED0E940C0310EB0E9417030EE109
:1007A80000930C0102E000930B011DC0023099F484
:1007B80000910C010A9500930C01A9F41AED0E940E
:1007C8000C031EEC0E94170309E600930C0100E0DD
:1007D80000930B0108C000E000930B0104C00E94C5
:1007E80011030E94060308950E94010401E000938A
:1007F8000E0101E000930D010895519A599A529AF9
:100808005A9A539A5B9A55985D9A56985E9A579851
:100818005F9A08954EC0F09B0895F09800910D01DD
:100828000A9500930D01B1F701E000930D010E94B4
:10083800010400910E0110910F01013081F402E0D2
:1008480059980E945E0429B1599A207221F00E9499
:100858009B0211602AC00E949D021E7F26C00230A2
:1008680081F404E05A980E945E0429B15A9A2074CF
:1008780021F00E949F02126018C00E94A1021D7FF1
:1008880014C0043081F401E05B980E945E0429B131
:100898005B9A207821F00E94A302146006C00E948F
:1008A800A5021B7F02C0112701E010930F010093DE
:1008B8000E0108950F930BEF00000A95E9F70F91C9
:1008C80008950E946E040EE10093130100E0009366
:1008D800120108950895F49B0895F4980091130166
:1008E8000A9500931301F9F403E0009313010091B2
:1008F8001201003021F401E00093120114C001300C
:1009080039F410E00E94AB0402E0009312010BC01E
:10091800023031F411E00E94AB040EE100931301A0
:1009280000E000931201089500EE00937C0006E8B1
:1009380000937A000895103029F420911501109140
:10094800140104C020911701109116010895103068
:10095800C1F400917C00007F006000937C0000914E
:100968007A00006400937A0000917A000074E1F73D
:1009780020917800109179002093150110931401AB
:1009880017C000917C00007F016000937C000091FB
:100998007A00006400937A0000917A000074E1F70D
:1009A8002091780010917900209317011093160177
:1009B800089533E040E357E0220F111F001F220F74
:1009C800111F001F00931801220F111F0091180119
:1009D800001F0093180100911901001F00931901CD
:1009E800A8E1B1E062E00C910F930F70053018F0A8
:1009F8000F91030F01C00F910F93007F003518F07E
:100A08000F91040F01C00F910D936A9561F75A95E4
:100A1800D9F6220F111F00911801001F0093180129
:100A280000911901001F00931901089506E0169519
:100A380027950A95E1F7AAE1B1E0012F007F029519
:100A48000E943C050D93012F0F700E943C050D93E9
:100A5800022F007F02950E943C050D93022F0F7014
:100A68000E943C050D9300270C93AAE1B1E008957C
:100A78003F934F9330E347E30A3010F0040F01C06F
:100A8800030F4F913F9108950E945C05589859981B
:100A98005A985B980AE000931F0100E00093200138
:100AA80000E001E00093210104E60093220108958B
:100AB800509A519A529A539A0895F39B0895F3982D
:100AC80000911F010A9500931F0109F008950AE09B
:100AD80000931F010E945C0500912101003029F458
:100AE800589859985A985B9808950130D1F4009114
:100AF8002001003021F45898599A01E033C00130A0
:100B080021F45A985B9A02E02DC0023021F4589AD9
:100B1800599803E027C0033021F55A9A5B9800E002
:100B280021C00130D1F400912001003021F45A98FD
:100B38005B9A03E017C0033021F45898599A02E0F1
:100B480011C0023021F45A9A5B9801E00BC00130C1
:100B580041F4589A599800E005C000E0009321013B
:100B6800089500E00093200108950CE50093B80073
:100B780000E00093B9000FEA0093BA000027009341
:100B8800BD0004E00093BC00002700934F010895C6
:100B980005EC0093BC0008953CC05DC060C05FC018
:100BA8005FC05FC06FC06FC087C086C00F920FB6AE
:100BB8000F920F931F930091B900087F0036D9F068
:100BC800083629F1003721F1083711F1003821F3EF
:100BD800083819F3003911F3083909F3003A01F319
:100BE800083AF9F2003BF1F2083BE9F2003CE1F285
:100BF800083CD9F262C004E20093360101E0009398
:100C0800370100270093230100934F0156C055C0B8
:100C180054C000914F01013019F002E000934F01D8
:100C28001091BB0000912301023124F001E80093E8
:100C38004E0143C0AF93BF93039500932301A09146
:100C48003601B09137011D93A0933601B093370157
:100C5800BF91AF9132C001E000934F01DACF2DC0B0
:100C68002CC0AF93BF93A9E3B1E00D910093BB00F3
:100C7800A0934B01B0934C0101E000934D01BF914B
:100C8800AF911BC0EECF00914D01109138010117B3
:100C980094F4039500934D01AF93BF93A0914B013A
:100CA800B0914C010D910093BB00A0934B01B09300
:100CB8004C01BF91AF9101C000C005EC0093BC008E
:100CC8001F910F910F900FBE0F90189500914F0133
:100CD800023009F00895A4E2B1E016E02091230162
:060CE8000E9420020895A5
:00000001FF
