:020000020000FC
:0200000033C00B
:0200380082C381
:0200600058C086
:100068000FEF0DBF08E00EBF00E805BF05BF0E94F7
:100078007B030E9460040E9468000E945A010E944B
:100088004C020E942301789411270E940C02E6E298
:10009800F6E00E940C0310E40E940C02EEEAF6E07F
:1000A8000E940C03E0E5F6E016E00E94EF020E94D1
:1000B800E5010E9466040E946A040E946E040E9480
:1000C80056020E942901FBCF0CE50093B80000E01E
:1000D8000093B9000BE40093BA0000270093BD0019
:1000E80004E00093BC00089500E000932C0105ECA7
:1000F8000093BC00089542C05CC05CC05BC05BC09C
:1001080069C079C079C091C090C00F920FB60F92A4
:100118000F931F930091B900087F0036D9F0083675
:1001280059F1003751F1083741F1003821F3083807
:1001380019F3003911F3083909F3003A01F3083AC1
:10014800F9F2003BF1F2083BE9F2003CE1F2083C2D
:10015800D9F26CC00E94640401E00093130101E02D
:100168000093140100270093000100E000932B0185
:1001780001E000932C015AC059C058C01091BB002F
:1001880000910001023124F001E000932B014EC0E0
:10019800AF93BF93039500930001A0911301B09111
:1001A80014011D93A0931301B0931401BF91AF9153
:1001B8003DC0E4CF3BC000912C01013021F000E0AC
:1001C80000932C0133C002E000932C0104E000935B
:1001D800BC002CC0AF93BF93A6E1B1E00D91009392
:1001E800BB00A0932801B093290101E000932A01E4
:1001F800BF91AF911BC0EECF00912A01109115015C
:10020800011794F4039500932A01AF93BF93A0912B
:100218002801B09129010D910093BB00A0932801FA
:10022800B0932901BF91AF9101C000C005EC0093C4
:10023800BC001F910F910F900FBE0F90189501E011
:1002480000932D010E947800089500912C0102303E
:1002580009F016C00E94660420910001222371F063
:10026800C1E0D1E010912D011F930E94C0021F919F
:10027800139516300CF011E010932D010E947800B0
:1002880008950F9308E2000000000000000000003D
:100298000A95C9F70F9108950F9309E10E94450146
:1002A8000A95E1F71A95C9F70F9108953B9A3A9A7A
:1002B800399A43984298419818E20E94500110E2F6
:1002C8000E948D0118E20E9450011CE20E948801E0
:1002D8000E94450118E20E9450011CE20E94880118
:1002E8000E94450118E20E9450010E94DE011EE0B2
:1002F8000E94880111E00E94500121E030E00E9434
:10030800EC0108950E949001439842980E94C4010C
:1003180012950E94C40108951F930E9445010E94EE
:1003280045014398429A0E94A3011F930E94A3018A
:100338001F91110F90F3439842981F9108950F93BE
:1003480000270AB90FEF0BB9419A0000000000001E
:100358000000000000000000000000000000000095
:100368000000000000000000000000000000000085
:100378000000000000001BB1000041980F91089593
:100388000F9300EF0AB9000000001BB9000000003D
:10039800419A00000000000000000000000000007A
:1003A800000000000000000000000000000041986C
:1003B8000F91089511E00E9488011AE00E945001EF
:1003C800089512E00E9488011AE00E9450010895E1
:1003D80014E0222309F01260332309F011600E940F
:1003E800880111E00E9450010895089510610E944B
:1003F80088010E94450111E00E945001089510648F
:100408000E9488010E94450111E00E945001089550
:1004180010680E9488010E94450111E00E94500165
:1004280008954398429A0E94A3011F930E94A30132
:1004380011E00E94500142981F910895439A4298F2
:100448000E94C40112950E94C4010E9445010E94A5
:10045800450111E00E9450010E9415024398089539
:10046800439A429A0E94A3011F930E94A3011295E6
:100478001F700F91007F102B1F930E9445010E944F
:10048800450111E00E9450010E9415021F91089534
:10049800002700932E0108EC00932F0102E000933F
:1004A80030010895F69B0895F69800912F010A955A
:1004B80000932F0109F0089508EC00932F01009193
:1004C8003001013019F40E94E50108950230B1F4B9
:1004D80010912E011395153031F4112710932E0128
:1004E8000E94E501089510932E0128E018E02F934B
:1004F8000E94FA012F912A95C9F7089501E0009307
:10050800300108952F931A95110F110F110F00E460
:10051800100FCF93DF932F930E940C022F91DF913E
:10052800CF9119910E9422022A95D9F71F9128E0AC
:10053800211B29F010E20E9422022A95D9F708957A
:100548002F931A95110F110F110FCF93DF932F933C
:100558000E940C022F91DF91CF9119910E942202E3
:100568002A95D9F71F9128E0211B29F010E20E9453
:1005780022022A95D9F7089529301CF40E94A40272
:1005880008952F931F9328E00E94A4021F912F9192
:1005980028500E9486020895153014F400E001C026
:1005A80000E41550110F110F110F100F0E940C02CB
:1005B8000E94F7020895153014F400E001C000E429
:1005C8001550110F110F110F100F0E940C02122F4E
:1005D8000E94FF020895110F110F110F0E940C02C3
:1005E8000E940C0308950D91002321F0102F0E9402
:1005F8002202F9CF0895112351F01A950D91002385
:1006080031F01F93102F0E9422021F91F4CF0895FA
:100618001591112319F00E942202FACF08954C690E
:100628006E653A3020204C696E653A3120204C695D
:100638006E653A3220204C696E653A3320204C6949
:100648006E653A3420200000202020202020202021
:1006580000006162636465666768696A6B6C6D6EE9
:100668006F707172737475767778797A2E2C3C3E38
:100678003F2F7E21402324255E260000414243442B
:1006880045464748494A4B4C4D4E4F50515253549A
:1006980055565758595A2A28295F2B7B7D5B5D3A56
:1006A8003B22277C000048656C6C6F202020576F28
:1006B800726C6420202048617665206120204E6994
:1006C800636520446179206F72204E4F54210000E9
:1006D8004D4F44453A202020000053515541524582
:1006E8002020000041564F494420202000000FE1FF
:1006F80007BD02E004BD02E000936E0004E005BD02
:100708000AE000933101002700931E00089503E0DA
:100718000093890000938B0007EE009388000093F4
:100728008A0000270093800009E00093810004E01C
:1007380000936F0008950F920FB60F920F93F09ADF
:10074800F19AF29AF39A009131010A9529F40AE094
:10075800F49AF59AF69AF79A009331010F910F904F
:100768000FBE0F9018950E9464040E9468040E94AE
:100778006C040027009332010E94700410E00E946C
:100788000C020E94EA0310E40E940C020E94E70394
:100798000E94E50148E21AEF0E9450011AEF0E94F8
:1007A800500118E00E94FA014A95A9F748E21AEFA9
:1007B8000E9450011AEF0E9450011CE00E94FA01A9
:1007C8004A95A9F70895F8E0E6E802C0F7E0E6EEF2
:1007D8001591112319F00E942202FACF0895612D74
:1007E800622D632D642D652D662D672D682D692D6D
:1007F8006A2D6B2D6C2D6D2D6E2D6F2D702D712D1D
:10080800722D732D742D00006162636465666768DC
:10081800696A6B6C6D6E6F707172737475767778C8
:10082800000030313233343536373839214023240B
:10083800255E4748494A4B4C4D4E4F5051525354F0
:1008480055566162636465666768696A6B6C6D6E4C
:100858002D2A230048656C6C6F7720576F726C6483
:10086800262A28294142434445464748494A4B4C91
:100878004D4E4F5051525354555657580000412E23
:10088800422E432E442E452E462E472E482E492EC4
:100898004A2E4B2E4C2E4D2E4E2E4F2E502E512E74
:1008A800522E532E542E0000616263646566676899
:1008B800696A6B6C6D6E6F70269A279A209A0895F4
:1008C8002E9808952E9A08952F9808952F9A08958E
:1008D80028980895289A089500913201003039F433
:1008E8000E9466040E946A040E946E043EC00130A1
:1008F80039F40E9466040E946A040E946C0435C0A0
:10090800023039F40E9466040E9468040E946E0452
:100918002CC0033039F40E9466040E9468040E94C7
:100928006C0423C0043039F40E9464040E946A04F1
:100938000E946E041AC0053039F40E9464040E94B3
:100948006A040E946C0411C0063039F40E946404E1
:100958000E9468040E946E0408C00E9464040E94F9
:1009680068040E946C04002701C0039500933201BB
:020978000895E0
:00000001FF
