:020000020000FC
:020000003DC001
:020004005EC0DC
:020008005CC0DA
:02000C005AC0D8
:0200100058C0D6
:0200140056C0D4
:02001800DDC247
:02001C0052C0D0
:0200200050C0CE
:020024009FC07B
:020028004CC0CA
:02002C004AC0C8
:0200300048C0C6
:02003400EFC01B
:0200380008C1FD
:02003C0042C0C0
:0200400077C087
:020044003EC0BC
:020048003CC0BA
:02004C003AC0B8
:0200500038C0B6
:0200540036C0B4
:0200580034C0B2
:02005C0032C0B0
:0200600030C0AE
:020064002EC0AC
:0200680022C5AF
:02006C002AC0A8
:0200700028C0A6
:0200740026C0A4
:0200780024C0A2
:10007C000FEF0DBF04E00EBF00E805BF05BF0E94E7
:10008C0064000E9474000E9485000E9453020E942A
:10009C00C2000E94E8010E9477020E940B0578942E
:1000AC000E94DF040E94A4040E944D040E94FA01E5
:1000BC000E949202F7CF0E944504FDCF0DE407BDCC
:1000CC0002E004BD02E000936E0004E005BD0AE00E
:1000DC0000930001002700931E0008950027009351
:1000EC00890000938B0001E00093880000938A0044
:1000FC0000E00093800005E000938100089506E481
:10010C000093B30002E00093B00002E00093B10052
:10011C0002E00093700008950F9300270093B20043
:10012C000F9108950F920FB60F920F93F09AF19AC8
:10013C00F29AF39A009100010A9539F40AE0F49AC4
:10014C00F59AF69AF79A0E940201009300010F911A
:10015C000F900FBE0F9018950F920FB60F920F9332
:10016C0000910101039509F40FEF009301010F9128
:10017C000F900FBE0F9018950E94D100002700938E
:10018C00890000938B000E94D8000E94ED0006E0CD
:10019C0000936F000895579A559A569A529A549A0A
:1001AC00539A089510E05D985E9804C00091030185
:1001BC00100F00C0109303011093880008951123B1
:1001CC0019F05E985D9A08955E9A5D98089510E016
:1001DC005C985B9804C000910401100F00C0109350
:1001EC00040110938A000895112319F05B985C9A0E
:1001FC0008955B9A5C9808950F9305E00093810035
:10020C005F9A5A9A0F9108950F920FB60F920F930F
:10021C005F9800910201027051F000270093810059
:10022C0000938500009384000093020103C001E059
:10023C00009302010F910F900FBE0F9018950F9223
:10024C000FB60F920F935A9800910201017051F062
:10025C000027009381000093850000938400009395
:10026C00020103C002E0009302010F910F900FBE38
:10027C000F90189501E00093050101E00093060131
:10028C000895F79B0895F79800910601013099F5B0
:10029C00009107010030C9F4009108010A95009300
:1002AC00080109F07BC010E00E94E5000E94FA00F2
:1002BC0012E60E94E00012E60E94F50008EC0093A2
:1002CC00080102E00093070169C0023081F400913B
:1002DC0008010A950093080109F060C00E94ED0026
:1002EC0009E60093080100E00093070157C00027BE
:1002FC000093070153C0023009F40895033009F04C
:10030C0049C0009107010030B1F4009108010A9531
:10031C000093080109F042C010E00E94E5000E9421
:10032C00FA0012E60E94E00012E60E94F50001E0DD
:10033C000093070133C00130B9F40E94D501112399
:10034C0009F42CC011E30E94F50011E30E94E000B7
:10035C0011E00E94E5000E94FA000CE300930801F2
:10036C0002E0009307011AC0023081F400910801E9
:10037C000A950093080191F410E00E94E50009E64B
:10038C000093080100E00093070108C000E000930F
:10039C00070104C00E94ED000E94D800089500914E
:1003AC00110102330CF40CC00091120102330CF455
:1003BC0007C00091130102330CF402C011270895F9
:1003CC0011E008950E94F10107E000930E0100E096
:1003DC0000930D010895149A159A169A179A0C9A6F
:1003EC000D9A0E9A0F9A0895F49B0895F498009123
:1003FC000E010A9500930E0109F04EC000910D01FB
:10040C00003041F4149806E000930E0101E00093D3
:10041C000D0142C0013071F410E00E945F02109394
:10042C000901149A159806E000930E0102E000935E
:10043C000D0132C0023071F411E00E945F02109382
:10044C000A01159A179806E000930E0103E0009339
:10045C000D0122C0033071F413E00E945F0210936F
:10046C000B01179A169806E000930E0104E0009316
:10047C000D0112C0043069F412E00E945F02109367
:10048C000C01169A07E000930E0100E000930D0199
:10049C0003C000E000930D01089500EE00937C0072
:1004AC0007E800937A00089510910F012091100134
:1004BC00089500917C00087F012B00937C00009133
:1004CC007A00006400937A0000917A000074E1F7DE
:1004DC0020917800109179002093100110930F0156
:1004EC0008950E94830205E00093150100E000933B
:1004FC00140104E00093680008953A9A3B983C9AE2
:10050C003D983E9A3F9808950F9308E20000000032
:10051C000A95E1F70F910895F59B0895F5980091D0
:10052C0015010A950093150109F008950091140125
:10053C00003079F4469A0E948A02469800E80093AB
:10054C006D0000E80093170105E00093150101E030
:10055C0038C00E944904013099F4009116010093AF
:10056C001101449A0E948A02449800E200936D00A3
:10057C0000E20093170105E00093150102E021C091
:10058C000E944B04023099F4009116010093120161
:10059C00429A0E948A02429808E000936D0008E09B
:1005AC000093170105E00093150103E00AC0033026
:1005BC0039F4009116010093130105E00093150125
:1005CC0000E00093140108950F920FB60F920F9351
:1005DC001F9306B110911701012321F000270093FE
:1005EC00010107C00091010100931601002700933F
:1005FC006D001F910F910F900FBE0F90189508E191
:10060C0000932A0101E0009329010027009328019F
:10061C00089515E220912801A8E1B1E00E9424057B
:10062C00089520912801A0912A01B09129012F3021
:10063C007CF4012F007F02950E9431040D932395C9
:10064C002F3034F4012F0F700E9431040D93239539
:10065C0020932801A0932A01B093290108950091B9
:10066C002801A0912A01B09129010F303CF421916D
:10067C00222321F02D9303951A95B9F700932801A5
:10068C00A0932A01B09329010895EE0FFF1F00914A
:10069C002801A0912A01B09129010F3034F4159151
:1006AC00112319F01D930395F8CF00932801A09303
:1006BC002A01B0932901089542503A002000544178
:1006CC004E4B20424F5400004C696E653A3420204A
:1006DC0000004C696E653A303035000008950F9378
:1006EC001F933F934F935F936F937F938F93002749
:1006FC0033E040E355E0110F001F110F001F702F66
:10070C008827110F072F001F702F082F001F802F15
:10071C000E94A903702F082F0E94A903802F5A95BD
:10072C0081F7220F111F072F001F702F082F001F9A
:10073C00802F8F917F916F915F914F913F912F916E
:10074C001F910F9108953F934F9333E040E30F9324
:10075C000F70053018F00F91030F01C00F910F931C
:10076C00007F003518F00F91040F01C00F914F91CD
:10077C003F9108950F931F932F933F934F935F9344
:10078C0033E040E357E0220F111F001F220F111F0F
:10079C00001F00932B01220F111F00912B01001F32
:1007AC0000932B0100912C01001F00932C01ABE254
:1007BC00B1E062E00C910F930F70053018F00F91BF
:1007CC00030F01C00F910F93007F003518F00F91AC
:1007DC00040F01C00F910D936A9561F75A95D9F6E4
:1007EC00220F111F00912B01001F00932B01009170
:1007FC002C01001F00932C015F914F913F912F9181
:10080C001F910F9108950F931F932F9306E0169548
:10081C0027950A95E1F7ADE2B1E0012F007F029533
:10082C000E9431040D93012F0F700E9431040D931F
:10083C00022F007F02950E9431040D93022F0F703E
:10084C000E9431040D9300270C93ADE2B1E02F917F
:10085C001F910F9108953F934F9330E347E30A3074
:10086C0010F0040F01C0030F4F913F9108955B9A54
:10087C0008955B9808955C9A08955C9808955D9A24
:10088C0008955D9808955E9A08955E980895F79B73
:10089C000895F798009132010A950093320109F0FE
:1008AC0008950DEC009332010E940503E5E6F3E098
:1008BC000E944B03E4E6F3E00E944B0300913701E6
:1008CC000370003061F4102F0E941703E4E6F3E08C
:1008DC000E944B03109109010E94170327C001309D
:1008EC0061F4102F0E941703E4E6F3E00E944B031F
:1008FC0010910A010E94170319C0023061F4102FE5
:10090C000E941703E4E6F3E00E944B0310910C01E4
:10091C000E9417030BC0102F0E941703E4E6F3E0AC
:10092C000E944B0310910B010E9417030091370199
:10093C000395009337010E940F030895009109015C
:10094C00003818F00E943D0402C00E943F04009140
:10095C000A01003818F00E94410402C00E944304AE
:10096C0000910B01003818F00E94450402C00E944F
:10097C00470400910C01003818F00E94490402C091
:10098C000E944B04089500911101023314F45D9AF6
:10099C0001C05D9800911201023314F45E9A01C0FB
:1009AC005E9800911301023314F45C9A01C05C98B8
:1009BC0008955E9A5D9A5B9A5C9A04E1F79BFECF70
:1009CC00F7985E98F79BFECFF7985D98F79BFECF54
:1009DC00F7985B98F79BFECFF7985C9AF79BFECF46
:1009EC00F7985E9AF79BFECFF7985D9AF79BFECF30
:1009FC00F7985B9AF79BFECFF7985C980A95F1F6FF
:100A0C005E985D985B985C9808950CE50093B8002F
:100A1C0000E00093B90000270093BB0004E00093B2
:100A2C00BC0000E00093390108951091390108953C
:100A3C0010913B01089510913A01089500913901EC
:100A4C00003011F0102F0895110F10933801A0935E
:100A5C003D01B0933C012093400101E0009339012A
:100A6C0005EA0093BC00112708950091390100306C
:100A7C0011F0102F08950894111F10933801A093B2
:100A8C003D01B0933C0120933E0101E000933901FC
:100A9C0005EA0093BC001127089554C064C067C0D8
:100AAC0086C00F920FB60F920F93AF93BF93009126
:100ABC00B900087F0830A9F0003199F00833E9F04B
:100ACC000831F9F00032A9F00832D9F00033C9F13D
:100ADC00003419F3083411F3003509F3083501F328
:100AEC0078C0009138010093BB0005E80093BC006E
:100AFC0076C000E400933B016CC005EA0093BC0097
:100B0C006EC000914001002391F00A9500934001C2
:100B1C00A0913D01B0913C010D910093BB00A093BD
:100B2C003D01B0933C0105E80093BC0058C004E9BA
:100B3C000093BC0000E0009339010FEF0093BB0061
:100B4C004EC047C0002700933F0100933A0100912B
:100B5C003E01002321F405E80093BC0040C005ECE5
:100B6C000093BC003CC000E400933B0132C01091E8
:100B7C00BB00A0913D01B0913C011D9300913F0140
:100B8C00039500933F0110913E011A95101744F004
:100B9C00A0933D01B0933C0105EC0093BC001FC039
:100BAC0000E800933B0105E80093BC0018C01091CD
:100BBC00BB00A0913D01B0913C011C9300E000935F
:100BCC00390104E90093BC0000913F0100933A0104
:100BDC0006C004E00093BC000FEF0093BB00BF9174
:0C0BEC00AF910F910F900FBE0F90189565
:00000001FF
