:020000020000FC
:020000003DC001
:02001800D8C24C
:020024009AC080
:02003400EAC020
:0200380003C102
:0200400072C08C
:02006800E9C4E9
:10007C000FEF0DBF04E00EBF00E805BF05BF0E94E7
:10008C005F000E946F000E9480000E944E020E943E
:10009C00BD000E94E3010E9472020E94D204789477
:1000AC000E94A6040E9448040E94F5010E948D0241
:1000BC00F9CF0DE407BD02E004BD02E000936E0031
:1000CC0004E005BD0AE000930001002700931E0028
:1000DC00089500270093890000938B0001E00093A2
:1000EC00880000938A0000E00093800005E00093F4
:1000FC008100089506E40093B30002E00093B00081
:10010C0002E00093B10002E00093700008950F9399
:10011C0000270093B2000F9108950F920FB60F9223
:10012C000F93F09AF19AF29AF39A009100010A95C2
:10013C0039F40AE0F49AF59AF69AF79A0E94FD00BF
:10014C00009300010F910F900FBE0F9018950F9216
:10015C000FB60F920F9300910101039509F40FEF65
:10016C00009301010F910F900FBE0F9018950E94F4
:10017C00CC0000270093890000938B000E94D300D1
:10018C000E94E80006E000936F000895579A559A74
:10019C00569A529A549A539A089510E05D985E9824
:1001AC0004C000910301100F00C0109303011093C1
:1001BC0088000895112319F05E985D9A08955E9A4F
:1001CC005D98089510E05C985B9804C00091040160
:1001DC00100F00C01093040110938A00089511238E
:1001EC0019F05B985C9A08955B9A5C9808950F934C
:1001FC0005E0009381005F9A5A9A0F9108950F922F
:10020C000FB60F920F935F9800910201027051F09C
:10021C0000270093810000938500009384000093D5
:10022C00020103C001E0009302010F910F900FBE79
:10023C000F9018950F920FB60F920F935A9800913A
:10024C000201017051F0002700938100009385009A
:10025C00009384000093020103C002E000930201AA
:10026C000F910F900FBE0F90189501E000930501B0
:10027C0001E0009306010895F79B0895F79800910B
:10028C000601013099F5009107010030C9F4009185
:10029C0008010A950093080109F07BC010E00E9448
:1002AC00E0000E94F50012E60E94DB0012E60E94BC
:1002BC00F00008EC0093080102E00093070169C00C
:1002CC00023081F4009108010A950093080109F0AD
:1002DC0060C00E94E80009E60093080100E000936A
:1002EC00070157C000270093070153C0023009F4DF
:1002FC000895033009F049C0009107010030B1F4B2
:10030C00009108010A950093080109F042C010E021
:10031C000E94E0000E94F50012E60E94DB0012E64B
:10032C000E94F00001E00093070133C00130B9F4E2
:10033C000E94D001112309F42CC011E30E94F0009B
:10034C0011E30E94DB0011E00E94E0000E94F50026
:10035C000CE30093080102E0009307011AC002307D
:10036C0081F4009108010A950093080191F410E0C2
:10037C000E94E00009E60093080100E000930701E9
:10038C0008C000E00093070104C00E94E8000E942E
:10039C00D30008950091110102330CF40CC00091AC
:1003AC00120102330CF407C00091130102330CF458
:1003BC0002C01127089511E008950E94EC0108E095
:1003CC0000930E0100E000930D010895149A159A04
:1003DC00169A179A0C9A0D9A0E9A0F9A0895F49BE6
:1003EC000895F49800910E010A9500930E0109F0FE
:1003FC004EC000910D01003041F4149803E00093BD
:10040C000E0101E000930D0142C0013071F410E0C7
:10041C000E945A0210930901149A159803E0009354
:10042C000E0102E000930D0132C0023071F411E0B4
:10043C000E945A0210930A01159A179803E0009330
:10044C000E0103E000930D0122C0033071F413E0A0
:10045C000E945A0210930B01179A169803E000930E
:10046C000E0104E000930D0112C0043069F412E097
:10047C000E945A0210930C01169A08E000930E0188
:10048C0000E000930D0103C000E000930D010895FE
:10049C0000EE00937C0007E800937A000895109119
:1004AC000F0120911001089500917C00087F012B11
:1004BC0000937C0000917A00006400937A00009114
:1004CC007A000074E1F72091780010917900209364
:1004DC00100110930F0108950E947E0205E0009315
:1004EC00150100E00093140104E0009368000895E6
:1004FC003A9A3B983C9A3D983E9A3F9808950F93B0
:10050C0008E2000000000A95E1F70F910895F59BB1
:10051C000895F598009115010A950093150109F0BD
:10052C00089500911401003079F4469A0E948502D6
:10053C00469800E800936D0000E80093170105E071
:10054C000093150101E038C00E944404013099F475
:10055C000091160100931101449A0E94850244985F
:10056C0000E200936D0000E20093170105E0009398
:10057C00150102E021C00E944604023099F400915A
:10058C00160100931201429A0E948502429808E0DB
:10059C0000936D0008E00093170105E0009315012E
:1005AC0003E00AC0033039F40091160100931301E3
:1005BC0005E00093150100E00093140108950F92DB
:1005CC000FB60F920F931F9306B1109117010123D1
:1005DC0021F000270093010107C000910101009355
:1005EC001601002700936D001F910F910F900FBE05
:1005FC000F90189508E100932A0101E0009329015E
:10060C00002700932801089515E220912801A8E104
:10061C00B1E00E94EB04089520912801A0912A01D9
:10062C00B09129012F307CF4012F007F02950E949C
:10063C002C040D9323952F3034F4012F0F700E944E
:10064C002C040D93239520932801A0932A01B09399
:10065C002901089500912801A0912A01B091290146
:10066C000F303CF42191222321F02D9303951A9500
:10067C00B9F700932801A0932A01B093290108959A
:10068C00EE0FFF1F00912801A0912A01B0912901C2
:10069C000F3034F41591112319F01D930395F8CFF5
:1006AC0000932801A0932A01B09329010895425088
:1006BC003A00200054414E4B20424F5400004C69EC
:1006CC006E653A34202000004C696E653A30303546
:1006DC00000008950F931F933F934F935F936F9375
:1006EC007F938F93002733E040E355E0110F001FF9
:1006FC00110F001F702F8827110F072F001F702F4D
:10070C00082F001F802F0E94A403702F082F0E9417
:10071C00A403802F5A9581F7220F111F072F001F5A
:10072C00702F082F001F802F8F917F916F915F91F9
:10073C004F913F912F911F910F9108953F934F939C
:10074C0033E040E30F930F70053018F00F91030F57
:10075C0001C00F910F93007F003518F00F91040F1B
:10076C0001C00F914F913F9108950F931F932F93B9
:10077C003F934F935F9333E040E357E0220F111FF9
:10078C00001F220F111F001F00932B01220F111F9E
:10079C0000912B01001F00932B0100912C01001FD5
:1007AC0000932C01ABE2B1E062E00C910F930F705F
:1007BC00053018F00F91030F01C00F910F93007FBC
:1007CC00003518F00F91040F01C00F910D936A952D
:1007DC0061F75A95D9F6220F111F00912B01001FBA
:1007EC0000932B0100912C01001F00932C015F91B1
:1007FC004F913F912F911F910F9108950F931F933C
:10080C002F9306E0169527950A95E1F7ADE2B1E036
:10081C00012F007F02950E942C040D93012F0F7065
:10082C000E942C040D93022F007F02950E942C0431
:10083C000D93022F0F700E942C040D9300270C9324
:10084C00ADE2B1E02F911F910F9108953F934F931B
:10085C0030E347E30A3010F0040F01C0030F4F914F
:10086C003F9108955B9A08955B9808955C9A08955A
:10087C005C9808955D9A08955D9808955E9A089520
:10088C005E980895F79B0895F798009132010A95A8
:10089C000093320109F008950AE0009315010E94BB
:1008AC0038040E940003E0E6F3E00E944603EFE503
:1008BC00F3E00E9446030AE500933301E3E3F1E021
:1008CC0011E00E943003EFE5F3E00E94460316E8C6
:1008DC000E9412030E940A03089500910901003836
:1008EC0014F45D9A01C05D9800910A01003814F46B
:1008FC005E9A01C05E9800910B01003814F45C9A6A
:10090C0001C05C9800910C01003814F45B9A01C092
:10091C005B98089500911101023314F45D9A01C0A3
:10092C005D9800911201023314F45E9A01C05E9836
:10093C0000911301023314F45C9A01C05C98089581
:10094C005E9A5D9A5B9A5C9A04E1F79BFECFF798EE
:10095C005E98F79BFECFF7985D98F79BFECFF798C4
:10096C005B98F79BFECFF7985C9AF79BFECFF798B6
:10097C005E9AF79BFECFF7985D9AF79BFECFF798A0
:10098C005B9AF79BFECFF7985C980A95F1F65E9808
:10099C005D985B985C9808950CE50093B80000E0B6
:1009AC000093B90000270093BB0004E00093BC0047
:1009BC0000E00093380108951091380108951091CA
:1009CC003A010895109139010895009138010030D1
:1009DC0011F0102F0895110F10933701A0933C01C3
:1009EC00B0933B0120933F0101E00093380105EAED
:1009FC000093BC001127089500913801003011F0CC
:100A0C00102F08950894111F10933701A0933C01E7
:100A1C00B0933B0120933D0101E00093380105EABE
:100A2C000093BC001127089558C068C06BC08AC0E1
:100A3C000F920FB60F920F93AF93BF930091B90023
:100A4C00087F0830A9F0003199F00833F9F008312B
:100A5C0009F10032A9F00832F9F00033E9F1003461
:100A6C0019F3083411F3003509F3083501F37CC090
:100A7C00009137010093BB0005E80093BC007AC0DD
:100A8C000E94400400E400933A016EC005EA009312
:100A9C00BC0070C00E943C0400913F01002391F007
:100AAC000A9500933F01A0913C01B0913B010D913F
:100ABC000093BB00A0933C01B0933B0105E800936D
:100ACC00BC0058C004E90093BC0000E0009338015E
:100ADC000FEF0093BB004EC047C0002700933E01B0
:100AEC000093390100913D01002321F405E80093A6
:100AFC00BC0040C005EC0093BC003CC000E400937B
:100B0C003A0132C01091BB00A0913C01B0913B0165
:100B1C001D9300913E01039500933E0110913D0100
:100B2C001A95101744F0A0933C01B0933B0105ECCF
:100B3C000093BC001FC000E800933A0105E8009345
:100B4C00BC0018C01091BB00A0913C01B0913B01BE
:100B5C001C9300E00093380104E90093BC00009161
:100B6C003E010093390106C004E00093BC000FEF76
:100B7C000093BB00BF91AF910F910F900FBE0F90E0
:020B8C001895BA
:00000001FF
