:020000020000FC
:020000003DC001
:02001800BAC26A
:0200240098C082
:02003400E8C022
:0200380001C104
:0200400070C08E
:10007C000FEF0DBF04E00EBF00E805BF05BF0E94E7
:10008C005D000E946D000E947E000E9434020E945E
:10009C00BB000E94C9010E94580278940E94DE03A2
:1000AC000E94AB030E94DB010E947302F9CF0DE4A6
:1000BC0007BD02E004BD02E000936E0004E005BD44
:1000CC000AE000930001002700931E00089500270A
:1000DC000093890000938B0001E00093880000934B
:1000EC008A0000E00093800005E0009381000895F1
:1000FC0006E40093B30002E00093B00002E000932A
:10010C00B10002E00093700008950F930027009354
:10011C00B2000F9108950F920FB60F920F93F09AB1
:10012C00F19AF29AF39A009100010A9539F40AE0D7
:10013C00F49AF59AF69AF79A0E94FB000093000144
:10014C000F910F900FBE0F9018950F920FB60F9244
:10015C000F9300910101039509F40FEF0093010136
:10016C000F910F900FBE0F9018950E94CA00002798
:10017C000093890000938B000E94D1000E94E6003E
:10018C0006E000936F000895579A559A569A529A22
:10019C00549A539A089510E05D985E9804C00091AB
:1001AC000301100F00C010930301109388000895F1
:1001BC00112319F05E985D9A08955E9A5D980895E2
:1001CC0010E05C985B9804C000910401100F00C013
:1001DC001093040110938A000895112319F05B9871
:1001EC005C9A08955B9A5C9808950F9305E00093D0
:1001FC0081005F9A5A9A0F9108950F920FB60F9241
:10020C000F935F9800910201027051F00027009348
:10021C00810000938500009384000093020103C0C9
:10022C0001E0009302010F910F900FBE0F901895F3
:10023C000F920FB60F920F935A9800910201017012
:10024C0051F00027009381000093850000938400F7
:10025C000093020103C002E0009302010F910F9082
:10026C000FBE0F90189501E00093050101E000937B
:10027C0006010895F79B0895F798009105010A95DA
:10028C000093050109F0089501E000930501009128
:10029C000601013071F5009107010030A1F40091C5
:1002AC0008010A950093080109F06CC012E60E943F
:1002BC00D90012E60E94EE0008EC0093080102E05F
:1002CC00009307015FC0023081F4009108010A9588
:1002DC000093080109F056C00E94E60009E600935D
:1002EC00080100E0009307014DC0002700930701AF
:1002FC0049C0023009F40895033009F03FC0009161
:10030C000701003089F4009108010A950093080157
:10031C0009F038C012E60E94D90012E60E94EE00E5
:10032C0001E0009307012EC0013079F409F42AC0D2
:10033C0012E60E94D90012E60E94EE000EE1009334
:10034C00080102E0009307011DC0023099F40091EE
:10035C0008010A9500930801A9F412E60E94D9003D
:10036C0012E60E94EE0009E60093080100E00093FB
:10037C00070108C000E00093070104C00E94E600DA
:10038C000E94D10008950E94D20108E000930E0152
:10039C0000E000930D010895149A159A169A179A75
:1003AC000C9A0D9A0E9A0F9A0895F49B0895F4984E
:1003BC0000910E010A9500930E0109F04EC00091B8
:1003CC000D01003041F4149803E000930E0101E09C
:1003DC0000930D0142C0013071F410E00E94400204
:1003EC0010930901149A159803E000930E0102E092
:1003FC0000930D0132C0023071F411E00E944002F2
:10040C0010930A01159A179803E000930E0103E06C
:10041C0000930D0122C0033071F413E00E944002DE
:10042C0010930B01179A169803E000930E0104E049
:10043C0000930D0112C0043069F412E00E944002D6
:10044C0010930C01169A08E000930E0100E0009343
:10045C000D0103C000E000930D01089500EE009320
:10046C007C0007E800937A00089510910F01209109
:10047C001001089500917C00087F012B00937C00F3
:10048C0000917A00006400937A0000917A00007465
:10049C00E1F72091780010917900209310011093CE
:1004AC000F0108950E94640205E00093150100E01D
:1004BC000093140104E00093680008953A9A3B9865
:1004CC003C9A3D983E9A3F9808950F9308E200009D
:1004DC0000000A95E1F70F910895F59B0895F598A2
:1004EC00009115010A950093150109F008950091EA
:1004FC001401003079F4469A0E946B02469800E889
:10050C0000936D0000E80093170105E000931501BE
:10051C0001E034C0013099F40091160100931101EF
:10052C00449A0E946B02449800E200936D0000E232
:10053C000093170105E00093150102E01FC0023083
:10054C0099F40091160100931201429A0E946B02D9
:10055C00429808E000936D0008E00093170105E055
:10056C000093150103E00AC0033039F40091160121
:10057C000093130105E00093150100E000931401B2
:10058C0008950F920FB60F920F931F9306B110910F
:10059C001701012321F000270093010107C00091EE
:1005AC00010100931601002700936D001F910F911C
:1005BC000F900FBE0F90189508950F931F933F93B4
:1005CC004F935F936F937F938F93002733E040E3B8
:1005DC0055E0110F001F110F001F702F8827110FEE
:1005EC00072F001F702F082F001F802F0E9417034A
:1005FC00702F082F0E941703802F5A9581F7220F16
:10060C00111F072F001F702F082F001F802F8F9195
:10061C007F916F915F914F913F912F911F910F910E
:10062C0008953F934F9333E040E30F930F700530E1
:10063C0018F00F91030F01C00F910F93007F00353D
:10064C0018F00F91040F01C00F914F913F91089535
:10065C000F931F932F933F934F935F9333E040E39C
:10066C0057E0220F111F001F220F111F001F0093B4
:10067C002A01220F111F00912A01001F00932A0149
:10068C0000912B01001F00932B01AAE2B1E062E064
:10069C000C910F930F70053018F00F91030F01C0E0
:1006AC000F910F93007F003518F00F91040F01C0CC
:1006BC000F910D936A9561F75A95D9F6220F111F78
:1006CC0000912A01001F00932A0100912B01001FA9
:1006DC0000932B015F914F913F912F911F910F919F
:1006EC0008950F931F932F9306E0169527950A955F
:1006FC00E1F7ACE2B1E0012F007F02950E949F036D
:10070C000D93012F0F700E949F030D93022F007FFA
:10071C0002950E949F030D93022F0F700E949F035E
:10072C000D9300270C93ACE2B1E02F911F910F9128
:10073C0008953F934F9330E347E30A3010F0040FD2
:10074C0001C0030F4F913F910895009109010038AA
:10075C0014F45D9A01C05D9800910A01003814F4FC
:10076C005E9A01C05E9800910B01003814F45C9AFB
:10077C0001C05C9800910C01003814F45B9A01C024
:10078C005B98089500911101023314F45D9A01C035
:10079C005D9800911201023314F45E9A01C05E98C8
:1007AC0000911301023314F45C9A01C05C98089513
:1007BC005E9A5D9A5B9A5C9A4424F79BFECFF798FD
:1007CC005E98F79BFECFF7985D98F79BFECFF79856
:1007DC005B98F79BFECFF7985C9AF79BFECFF79848
:1007EC005E9AF79BFECFF7985D9AF79BFECFF79832
:1007FC005B9AF79BFECFF7985C984A94F1F60895B4
:00000001FF
