:020000020000FC
:020000003DC001
:020024009AC080
:02003400E8C022
:0200380001C104
:0200400072C08C
:10007C000FEF0DBF04E00EBF00E805BF05BF0E94E7
:10008C005F000E946F000E9480000E94BB00789469
:10009C0010E00E94DE0011E30E94D90010E00E94E3
:1000AC00F30012E60E94EE003A94F1F70E9452021D
:1000BC00FBCF0DE407BD02E004BD02E000936E002F
:1000CC0004E005BD0AE000930001002700931E0028
:1000DC00089500270093890000938B0001E00093A2
:1000EC00880000938A0000E00093800005E00093F4
:1000FC00810008950CE80093B30002E00093B00077
:10010C0002E00093B10002E00093700008950F9399
:10011C0000270093B2000F9108950F920FB60F9223
:10012C000F93F09AF19AF29AF39A009100010A95C2
:10013C0039F40AE0F49AF59AF69AF79A0E94FB00C1
:10014C00009300010F910F900FBE0F9018950F9216
:10015C000FB60F920F9300910101039500930101CB
:10016C000F910F900FBE0F9018950E94CA00002798
:10017C000093890000938B000E94D1000E94E6003E
:10018C0006E000936F000895579A559A569A529A22
:10019C00549A539A089510E05D985E9804C00091AB
:1001AC000301100F00C010930301109388000895F1
:1001BC00112319F05E985D9A08955E9A5D980895E2
:1001CC0010E05C985B9804C000910401100F00C013
:1001DC001093040110938A000895112319F05B9871
:1001EC005C9A08955B9A5C9808950F9305E00093D0
:1001FC0081005F9A5A9A0F9108950F920FB60F9241
:10020C000F935F9800910201027051F00027009348
:10021C00810000938500009384000093020103C0C9
:10022C0001E0009302010F910F900FBE0F901895F3
:10023C000F920FB60F920F935A9800910201017012
:10024C0051F00027009381000093850000938400F7
:10025C000093020103C002E0009302010F910F9082
:10026C000FBE0F90189501E00093050101E000937B
:10027C0006010895F79B0895F798009105010A95DA
:10028C000093050109F0089501E000930501009128
:10029C000601013071F5009107010030A1F40091C5
:1002AC0008010A950093080109F06CC012E60E943F
:1002BC00D90012E60E94EE0008EC0093080102E05F
:1002CC00009307015FC0023081F4009108010A9588
:1002DC000093080109F056C00E94E60009E600935D
:1002EC00080100E0009307014DC0002700930701AF
:1002FC0049C0023009F40895033009F03FC0009161
:10030C000701003089F4009108010A950093080157
:10031C0009F038C012E60E94D90012E60E94EE00E5
:10032C0001E0009307012EC0013079F409F42AC0D2
:10033C0012E60E94D90012E60E94EE000EE1009334
:10034C00080102E0009307011DC0023099F40091EE
:10035C0008010A9500930801A9F412E60E94D9003D
:10036C0012E60E94EE0009E60093080100E00093FB
:10037C00070108C000E00093070104C00E94E600DA
:10038C000E94D10008950E94D2010EE100930E014B
:10039C0000E000930D0108950895F49B0895F498DE
:1003AC0000910E010A9500930E01C9F403E000932D
:1003BC000E0100910D01003021F401E000930D01BC
:1003CC000EC0013021F403E000930D0108C003308E
:1003DC0019F40EE100930E0100E000930D01089555
:1003EC0000EE00937C0006E800937A00089510302C
:1003FC0029F42091100110910F0104C020911201D9
:10040C001091110108951030C1F400917C00007F0F
:10041C00006000937C0000917A00006400937A00E5
:10042C0000917A000074E1F7209178001091790026
:10043C002093100110930F0117C000917C00007FD6
:10044C00016000937C0000917A00006400937A00B4
:10045C0000917A000074E1F72091780010917900F6
:10046C00209312011093110108950E9444020AE096
:10047C000093170100E0009316010895429A4398E7
:10048C00449A4598469A479808950F9308E20000BD
:10049C0000000A95E1F70895F59B0895F5980091F1
:1004AC0016010A950093160109F0089500911601A2
:1004BC00003059F4429A0E944B020027009301012C
:1004CC00009101010E3F00931801013002300330FE
:1004DC00089508950F931F933F934F935F936F93DA
:1004EC007F938F93002733E040E355E0110F001FFB
:1004FC00110F001F702F8827110F072F001F702F4F
:10050C00082F001F802F0E94A402702F082F0E941A
:10051C00A402802F5A9581F7220F111F072F001F5D
:10052C00702F082F001F802F8F917F916F915F91FB
:10053C004F913F912F911F910F9108953F934F939E
:10054C0033E040E30F930F70053018F00F91030F59
:10055C0001C00F910F93007F003518F00F91040F1D
:10056C0001C00F914F913F9108950F931F932F93BB
:10057C003F934F935F9333E040E357E0220F111FFB
:10058C00001F220F111F001F00932B01220F111FA0
:10059C0000912B01001F00932B0100912C01001FD7
:1005AC0000932C01ABE2B1E062E00C910F930F7061
:1005BC00053018F00F91030F01C00F910F93007FBE
:1005CC00003518F00F91040F01C00F910D936A952F
:1005DC0061F75A95D9F6220F111F00912B01001FBC
:1005EC0000932B0100912C01001F00932C015F91B3
:1005FC004F913F912F911F910F9108950F931F933E
:10060C002F9306E0169527950A95E1F7ADE2B1E038
:10061C00012F007F02950E942C030D93012F0F7068
:10062C000E942C030D93022F007F02950E942C0335
:10063C000D93022F0F700E942C030D9300270C9327
:10064C00ADE2B1E02F911F910F9108953F934F931D
:10065C0030E347E30A3010F0040F01C0030F4F9151
:10066C003F9108955E9A5D9A5B9A5C9AF79BFECFD8
:10067C00F7985E98F79BFECFF7985D98F79BFECFA7
:10068C00F7985B98F79BFECFF7985C9AF79BFECF99
:10069C00F7985E9AF79BFECFF7985D9AF79BFECF83
:1006AC00F7985B9AF79BFECFF7985C98DFCF08958D
:00000001FF
