:020000020000FC
:020000003DC001
:020018007BC2A9
:0200240090C08A
:02003400E0C02A
:02003800F9C00D
:0200400068C096
:10007C000FEF0DBF04E00EBF00E805BF05BF0E94E7
:10008C0055000E9465000E9476000E94F5010E94B6
:10009C00B3000E94190278940E943402FDCF0DE443
:1000AC0007BD02E004BD02E000936E0004E005BD54
:1000BC000AE000930001002700931E00089500271A
:1000CC000093890000938B0001E00093880000935B
:1000DC008A0000E00093800005E000938100089501
:1000EC0006E40093B30002E00093B00002E000933A
:1000FC00B10002E00093700008950F930027009365
:10010C00B2000F9108950F920FB60F920F93F09AC1
:10011C00F19AF29AF39A009100010A9539F40AE0E7
:10012C00F49AF59AF69AF79A0E94F300009300015C
:10013C000F910F900FBE0F9018950F920FB60F9254
:10014C000F9300910101039509F40FEF0093010146
:10015C000F910F900FBE0F9018950E94C2000027B0
:10016C000093890000938B000E94C9000E94DE005E
:10017C0006E000936F000895579A559A569A529A32
:10018C00549A539A089510E05D985E9804C00091BB
:10019C000301100F00C01093030110938800089501
:1001AC00112319F05E985D9A08955E9A5D980895F2
:1001BC0010E05C985B9804C000910401100F00C023
:1001CC001093040110938A000895112319F05B9881
:1001DC005C9A08955B9A5C9808950F9305E00093E0
:1001EC0081005F9A5A9A0F9108950F920FB60F9251
:1001FC000F935F9800910201027051F00027009359
:10020C00810000938500009384000093020103C0D9
:10021C0001E0009302010F910F900FBE0F90189503
:10022C000F920FB60F920F935A9800910201017022
:10023C0051F0002700938100009385000093840007
:10024C000093020103C002E0009302010F910F9092
:10025C000FBE0F90189501E00093050101E000938B
:10026C0006010895F79B0895F798009105010A95EA
:10027C000093050109F0089501E000930501009138
:10028C000601013071F5009107010030A1F40091D5
:10029C0008010A950093080109F06CC012E60E944F
:1002AC00D10012E60E94E60008EC0093080102E07F
:1002BC00009307015FC0023081F4009108010A9598
:1002CC000093080109F056C00E94DE0009E6009375
:1002DC00080100E0009307014DC0002700930701BF
:1002EC0049C0023009F40895033009F03FC0009171
:1002FC000701003089F4009108010A950093080168
:10030C0009F038C012E60E94D10012E60E94E60005
:10031C0001E0009307012EC0013079F409F42AC0E2
:10032C0012E60E94D10012E60E94E6000EE1009354
:10033C00080102E0009307011DC0023099F40091FE
:10034C0008010A9500930801A9F412E60E94D10055
:10035C0012E60E94E60009E60093080100E0009313
:10036C00070108C000E00093070104C00E94DE00F2
:10037C000E94C90008950E94CA010EE100930E016B
:10038C0000E000930D010895149A159A169A179A85
:10039C000895F49B0895F49800910E010A9500932A
:1003AC000E01E1F403E000930E0100910D01003009
:1003BC0021F401E000930D0111C0013039F410E07B
:1003CC000E94010203E000930D0108C0033019F4F0
:1003DC000EE100930E0100E000930D01089500EE74
:1003EC0000937C0007E800937A00089510910F01A8
:1003FC0020911001089500917C00087F012B00933F
:10040C007C0000917A00006400937A0000917A00DD
:10041C000074E1F72091780010917900209310017D
:10042C0010930F0108950E94250208E00093170114
:10043C0000E00093160104E00093680008953A9AD6
:10044C003B983C9A3D983E9A3F9808950F9308E24A
:10045C00000000000A95E1F70F910895F59B0895AF
:10046C00F598009117010A950093170109F008956A
:10047C0000911601003079F4469A0E942C0246989D
:10048C0000E800936D0000E80093190104E000936C
:10049C00170101E034C0013099F400911801009368
:1004AC001301449A0E942C02449800E200936D00C0
:1004BC0000E20093190104E00093170102E01FC051
:1004CC00023099F40091180100931401429A0E9491
:1004DC002C02429808E000936D0008E0009319018B
:1004EC0004E00093170103E00AC0033039F40091D3
:1004FC0018010093150108E00093170100E0009328
:10050C00160108950F920FB60F920F931F9306B119
:10051C0010911901012321F000270093010107C05C
:10052C000091010100931801002700936D001F91A9
:10053C000F910F900FBE0F90189508950F931F9366
:10054C003F934F935F936F937F938F93002733E089
:10055C0040E355E0110F001F110F001F702F88276B
:10056C00110F072F001F702F082F001F802F0E94C4
:10057C00D802702F082F0E94D802802F5A9581F72D
:10058C00220F111F072F001F702F082F001F802F05
:10059C008F917F916F915F914F913F912F911F910F
:1005AC000F9108953F934F9333E040E30F930F70F7
:1005BC00053018F00F91030F01C00F910F93007FBE
:1005CC00003518F00F91040F01C00F914F913F911E
:1005DC0008950F931F932F933F934F935F9333E0A3
:1005EC0040E357E0220F111F001F220F111F001FA5
:1005FC0000932C01220F111F00912C01001F00935E
:10060C002C0100912D01001F00932D01ACE2B1E0F3
:10061C0062E00C910F930F70053018F00F91030FDF
:10062C0001C00F910F93007F003518F00F91040F4C
:10063C0001C00F910D936A9561F75A95D9F6220F67
:10064C00111F00912C01001F00932C0100912D0112
:10065C00001F00932D015F914F913F912F911F919E
:10066C000F9108950F931F932F9306E016952795DE
:10067C000A95E1F7AEE2B1E0012F007F02950E94EE
:10068C0060030D93012F0F700E9460030D93022FD6
:10069C00007F02950E9460030D93022F0F700E9441
:1006AC0060030D9300270C93AEE2B1E02F911F91E4
:1006BC000F9108953F934F9330E347E30A3010F0C6
:1006CC00040F01C0030F4F913F9108955E9A5D9AFC
:1006DC005B9A5C9AF79BFECFF7985E98F79BFECFE0
:1006EC00F7985D98F79BFECFF7985B98F79BFECF3A
:1006FC00F7985C9AF79BFECFF7985E9AF79BFECF24
:10070C00F7985D9AF79BFECFF7985B9AF79BFECF15
:08071C00F7985C98DFCF089507
:00000001FF
