:020000020000FC
:020000003DC001
:020004005EC0DC
:020008005CC0DA
:02000C005AC0D8
:0200100058C0D6
:0200140056C0D4
:02001800E5C23F
:02001C0052C0D0
:0200200050C0CE
:020024009FC07B
:020028004CC0CA
:02002C004AC0C8
:0200300048C0C6
:02003400F4C016
:020038000DC1F8
:02003C0042C0C0
:0200400077C087
:020044003EC0BC
:020048003CC0BA
:02004C003AC0B8
:0200500038C0B6
:0200540036C0B4
:0200580034C0B2
:02005C0032C0B0
:0200600030C0AE
:020064002EC0AC
:0200680065C56C
:02006C002AC0A8
:0200700028C0A6
:0200740026C0A4
:0200780024C0A2
:10007C000FEF0DBF04E00EBF00E805BF05BF0E94E7
:10008C0064000E9474000E9485000E945B020E9422
:10009C00C2000E9445010E94F0010E947F020E9452
:1000AC004E050E943F0678940E94FF040E944E0168
:1000BC000E949A02FBCF0E944205FDCF0DE407BDC2
:1000CC0002E004BD02E000936E0004E005BD0AE00E
:1000DC0000930001002700931E0008950027009351
:1000EC00890000938B0001E00093880000938A0044
:1000FC0000E00093800005E00093810008950CE877
:10010C000093B30002E00093B00002E00093B10052
:10011C0002E00093700008950F9300270093B20043
:10012C000F9108950F920FB60F920F93F09AF19AC8
:10013C00F29AF39A009100010A9539F40AE0F49AC4
:10014C00F59AF69AF79A0E940701009300010F9115
:10015C000F900FBE0F9018950F920FB60F920F9332
:10016C0000910101039509F40FEF009301010F9128
:10017C000F900FBE0F9018950E94D100002700938E
:10018C00890000938B000E94DD000E94F20006E0C3
:10019C0000936F000895579A559A569A529A549A0A
:1001AC00539A219A0895299A08952998089511E04F
:1001BC005D985E9804C000910301100F00C010936D
:1001CC000301109388000895112319F05E9A5D982D
:1001DC0008955E985D9A089511E05C985B9804C050
:1001EC0000910401100F00C01093040110938A00B9
:1001FC000895112319F05B9A5C9808955B985C9AAA
:10020C0008950F9305E0009381005F9A5A9A0F911D
:10021C0008950F920FB60F920F935F980091020101
:10022C00027051F000270093810000938500009329
:10023C0084000093020103C001E0009302010F91BE
:10024C000F900FBE0F9018950F920FB60F920F9341
:10025C005A9800910201017051F00027009381001F
:10026C0000938500009384000093020103C002E018
:10027C00009302010F910F900FBE0F90189501E0A3
:10028C000093050103E0009306010E94D900089534
:10029C00F79B0895F798009106010130A1F50091A4
:1002AC0007010030C9F4009108010A950093080178
:1002BC0009F07CC010E00E94EA000E94FF0013E6E7
:1002CC000E94E50016E50E94FA0004E6009308017E
:1002DC0002E0009307016AC0023089F40091080122
:1002EC000A950093080109F061C011E00E94FF001B
:1002FC000FE40093080100E00093070157C00027AA
:10030C000093070153C0023009F40895033009F03B
:10031C0049C0009107010030B1F4009108010A9521
:10032C000093080109F042C010E00E94EA000E940C
:10033C00FF0013E60E94E50016E50E94FA0001E0BA
:10034C000093070133C00130B9F40E94DD01103075
:10035C0009F42CC016E50E94FA0013E60E94E50091
:10036C0011E00E94EA000E94FF000CE300930801D8
:10037C0002E0009307011AC0023081F400910801D9
:10038C000A950093080191F410E00E94EA000FEA2C
:10039C000093080100E00093070108C000E00093FF
:1003AC00070104C00E94F2000E94DD000895009134
:1003BC001101023308F40CC000911201023308F44D
:1003CC0007C000911301023308F402C011270895ED
:1003DC0011E008950E94F90107E000930E0100E07E
:1003EC0000930D010895149A159A169A179A0C9A5F
:1003FC000D9A0E9A0F9A0895F49B0895F498009113
:10040C000E010A9500930E0109F04EC000910D01EA
:10041C00003041F4149806E000930E0101E00093C3
:10042C000D0142C0013071F410E00E94670210937C
:10043C000901149A159806E000930E0102E000934E
:10044C000D0132C0023071F411E00E94670210936A
:10045C000A01159A179806E000930E0103E0009329
:10046C000D0122C0033071F413E00E946702109357
:10047C000B01179A169806E000930E0104E0009306
:10048C000D0112C0043069F412E00E94670210934F
:10049C000C01169A07E000930E0100E000930D0189
:1004AC0003C000E000930D01089500EE00937C0062
:1004BC0007E800937A00089510910F012091100124
:1004CC00089500917C00087F012B00937C00009123
:1004DC007A00006400937A0000917A000074E1F7CE
:1004EC0020917800109179002093100110930F0146
:1004FC0008950E948B0205E00093150100E0009323
:10050C00140104E00093680008953A9A3B983C9AD1
:10051C003D983E9A3F9808950F9308E20000000022
:10052C000A95E1F70F910895F59B0895F5980091C0
:10053C0015010A950093150109F008950091140115
:10054C00003079F4469A0E949202469800E8009393
:10055C006D0000E80093170105E00093150101E020
:10056C0038C00E944A05013099F40091160100939D
:10057C001101449A0E949202449800E200936D008B
:10058C0000E20093170105E00093150102E021C081
:10059C000E944C05023099F400911601009312014F
:1005AC00429A0E949202429808E000936D0008E083
:1005BC000093170105E00093150103E00AC0033016
:1005CC0039F4009116010093130105E00093150115
:1005DC0000E00093140108950F920FB60F920F9341
:1005EC001F9306B110911701012321F000270093EE
:1005FC00010107C00091010100931601002700932F
:10060C006D001F910F910F900FBE0F90189508E180
:10061C0000932A0101E0009329010027009328018F
:10062C00089515E220912801A8E1B1E00E94670528
:10063C00089520912801A0912A01B09129012F3011
:10064C007CF4012F007F02950E9439040D932395B1
:10065C002F3034F4012F0F700E9439040D93239521
:10066C0020932801A0932A01B093290108950091A9
:10067C002801A0912A01B09129010F303CF421915D
:10068C00222321F02D9303951A95B9F70093280195
:10069C00A0932A01B09329010895EE0FFF1F00913A
:1006AC002801A0912A01B09129010F3034F4159141
:1006BC00112319F01D930395F8CF00932801A093F3
:1006CC002A01B0932901089542503A002000544168
:1006DC004E4B20424F5400004C696E653A3420203A
:1006EC0000004C696E653A303035000008950F9368
:1006FC001F933F934F935F936F937F938F93002739
:10070C0033E040E355E0110F001F110F001F702F55
:10071C008827110F072F001F702F082F001F802F05
:10072C000E94B103702F082F0E94B103802F5A959D
:10073C0081F7220F111F072F001F702F082F001F8A
:10074C00802F8F917F916F915F914F913F912F915E
:10075C001F910F9108953F934F9333E040E30F9314
:10076C000F70053018F00F91030F01C00F910F930C
:10077C00007F003518F00F91040F01C00F914F91BD
:10078C003F9108950F931F932F933F934F935F9334
:10079C0033E040E357E0220F111F001F220F111FFF
:1007AC00001F00932B01220F111F00912B01001F22
:1007BC0000932B0100912C01001F00932C01ABE244
:1007CC00B1E062E00C910F930F70053018F00F91AF
:1007DC00030F01C00F910F93007F003518F00F919C
:1007EC00040F01C00F910D936A9561F75A95D9F6D4
:1007FC00220F111F00912B01001F00932B01009160
:10080C002C01001F00932C015F914F913F912F9170
:10081C001F910F9108950F931F932F9306E0169538
:10082C0027950A95E1F7ADE2B1E0012F007F029523
:10083C000E9439040D93012F0F700E9439040D93FF
:10084C00022F007F02950E9439040D93022F0F7026
:10085C000E9439040D9300270C93ADE2B1E02F9167
:10086C001F910F9108953F934F9330E347E30A3064
:10087C0010F0040F01C0030F4F913F910895F79BA7
:10088C000895F798009132010A950093320109F00E
:10089C0008950AE0009332010E945E0413E40E9462
:1008AC0067060E948406222311F40E9467060895AD
:1008BC00EEECF8E01591112319F00E946706FACFBF
:1008CC00089554414E4B20424F540A0D0000F79BA3
:1008DC000895F798009132010A950093320109F0BE
:1008EC0008950DEC009332010E940D03EDE6F3E048
:1008FC000E945303ECE6F3E00E945303009137018E
:10090C000370003061F4102F0E941F03ECE6F3E03B
:10091C000E945303109109010E941F0327C001304C
:10092C0061F4102F0E941F03ECE6F3E00E945303C6
:10093C0010910A010E941F0319C0023061F4102F9C
:10094C000E941F03ECE6F3E00E94530310910C018C
:10095C000E941F030BC0102F0E941F03ECE6F3E054
:10096C000E94530310910B010E941F030091370149
:10097C000395009337010E94170308950091090114
:10098C00003818F00E943A0502C00E943C05009104
:10099C000A01003818F00E943E0502C00E94400572
:1009AC0000910B01003818F00E94420502C00E9411
:1009BC00440500910C01003818F00E94460502C055
:1009CC000E944805089500911101023310F45D9ABC
:1009DC0001C05D9800911201023310F45E9A01C0BF
:1009EC005E9800911301023310F45C9A01C05C987C
:1009FC000895569A559A539A549A209A04E1F79B63
:100A0C00FECFF7980E943A05F79BFECFF7980E940D
:100A1C003E05F79BFECFF7980E944205F79BFECF51
:100A2C00F7980E944605F79BFECFF7980E944A055F
:100A3C00F79BFECFF7980E943C05F79BFECFF798EB
:100A4C000E944005F79BFECFF7980E944405F79B48
:100A5C00FECFF7980E944805F79BFECFF7980E94AF
:100A6C004C050A9561F608955B9A08955B98089574
:100A7C005C9A08955C9808955D9A08955D98089520
:100A8C005E9A08955E980895289A08952898089576
:100A9C000CE50093B80000E00093B9000027009328
:100AAC00BB0004E00093BC0000E000933901089502
:100ABC0010913901089510913B01089510913A015C
:100ACC00089500913901003011F0102F0895110F85
:100ADC0010933801A0933D01B0933C012093400149
:100AEC0001E00093390105EA0093BC001127089539
:100AFC0000913901003011F0102F08950894111F46
:100B0C0010933801A0933D01B0933C0120933E011A
:100B1C0001E00093390105EA0093BC001127089508
:100B2C0054C064C067C086C00F920FB60F920F936B
:100B3C00AF93BF930091B900087F0830A9F0003142
:100B4C0099F00833E9F00831F9F00032A9F00832D5
:100B5C00D9F00033C9F1003419F3083411F300351E
:100B6C0009F3083501F378C0009138010093BB00FC
:100B7C0005E80093BC0076C000E400933B016CC018
:100B8C0005EA0093BC006EC000914001002391F077
:100B9C000A9500934001A0913D01B0913C010D914B
:100BAC000093BB00A0933D01B0933C0105E800937A
:100BBC00BC0058C004E90093BC0000E0009339016C
:100BCC000FEF0093BB004EC047C0002700933F01BE
:100BDC0000933A0100913E01002321F405E80093B3
:100BEC00BC0040C005EC0093BC003CC000E400938A
:100BFC003B0132C01091BB00A0913D01B0913C0172
:100C0C001D9300913F01039500933F0110913E010C
:100C1C001A95101744F0A0933D01B0933C0105ECDC
:100C2C000093BC001FC000E800933B0105E8009353
:100C3C00BC0018C01091BB00A0913D01B0913C01CB
:100C4C001C9300E00093390104E90093BC0000916F
:100C5C003F0100933A0106C004E00093BC000FEF83
:100C6C000093BB00BF91AF910F910F900FBE0F90EF
:100C7C00189501E00093C50004E00093C40002E065
:100C8C000093C00008E10093C10006E00093C2008D
:100C9C0000E000938501002700936101009362013D
:100CAC0000938301009384010895A1E4B1E030E244
:100CBC000E94CE060895A3E6B1E030E20E94F80649
:100CCC0008950091C00005FFFCCF1093C600089555
:100CDC0000918501003001F001E000938501A3E64D
:100CEC00B1E030E20E94CE0615E51093C6000091EB
:100CFC00C10000620093C100089508950091C000E6
:100D0C0007FF02C01091C60008950091C00007FFB4
:100D1C00D8CF1091C600089518950F920FB60F9268
:100D2C000F933F93AF93BF930091C600A1E4B1E042
:100D3C0030E20E94F806BF93AF933F930F930F904E
:100D4C000FBE0F9018950F920FB60F920F931F9323
:100D5C002F933F93AF93BF93A3E6B1E030E20E9491
:100D6C00CE06222349F00091C1000F7D0093C100F3
:100D7C0000E00093850102C01093C600BF93AF93AF
:100D8C003F932F931F930F930F900FBE0F901895B7
:100D9C000F933F93AF93BF93CF93DF93EF93FF9357
:100DAC00DD27C32FCA0FDB1FFF27E32FE395EA0FC5
:100DBC00FB1F08812081021711F421E00AC0A20F49
:100DCC000027B01F1C91239523170CF0222720839A
:100DDC002227FF91EF91DF91CF91BF91AF913F917E
:100DEC000F9108950F932F933F93AF93BF93CF938E
:100DFC00DF93EF93FF93DD27C32FCA0FDB1FFF2772
:100E0C00E32FE395EA0FFB1F0881039503170CF002
:100E1C0000272081021709F40AC00881A00F22279D
:100E2C00B21F1C93039503170CF000270883FF9146
:100E3C00EF91DF91CF91BF91AF913F912F910F9196
:020E4C00089507
:00000001FF
