:020000020000FC
:020000003DC001
:020040006BC192
:0200680095C041
:10007C000FEF0DBF04E00EBF00E805BF05BF0E94E7
:10008C0068010E9455000E94A40100E00093400109
:10009C00789400C00E94BC010E94F602FBCF0CE5D4
:1000AC000093B80000E00093B9000091BC0005601B
:1000BC000093BC00002700930201009303010093FE
:1000CC00070100931A010895112321F41EEA0E94DE
:1000DC00760008951FEA209107010E948A00089576
:1000EC00ABE1B1E0A0930601B09305011D932C91F7
:1000FC002F70239520931A012A950E947D031C933F
:10010C0005EA0093BC00089505EA0093BC00009139
:10011C00BC0007FFFCCF0091B900087F083021F527
:10012C002093BB0005E80093BC000091BC0007FFC6
:10013C00FCCF0091B900087F0034B1F405E80093BE
:10014C00BC000091BC0007FFFCCF0091B900087FF8
:10015C00003508351091BB0004E90093BC00222740
:10016C000FEF0093BB00089504E90093BC002FEF40
:10017C0008950E942B010895002700930301089510
:10018C005CC05BC05AC059C00F920FB60F920F9350
:10019C00AF93BF930091B900087F0830A9F00031EC
:1001AC0099F0003301F1083111F1003279F1083284
:1001BC00B1F1003359F1003419F3083411F300355F
:1001CC0009F3083501F332C0A0910601B091050185
:1001DC000D910093BB0005E80093BC00A0930601B1
:1001EC00B09305012BC00FEF009303011FC0A0912A
:1001FC000601B09105010D910093BB0005E8009339
:10020C00BC00A0930601B093050118C009E000934F
:10021C003001A0910601B09105010E91ECCF009137
:10022C001A010A9500931A0109F0E1CF04E9009331
:10023C00BC000FEF0093BB0001C0F8CFBF91AF9192
:10024C000F910F900FBE0F901895A8E0B1E0109190
:10025C002D0120912E01121711F421E0089588949C
:10026C00A21F0027B01F1C91239520932E0102E1A1
:10027C00201719F4222720932E01222708950F937B
:10028C00AF93BF93A8E0B1E000912D01A01F002710
:10029C00B01F1C9310912D01139510932D0102E1A9
:1002AC00101719F4112710932D0100912E0110171E
:1002BC0029F410932D0101E000930301BF91AF913C
:1002CC000F9108950FE407BD02E004BD02E0009316
:1002DC006E0004E005BD05E000932F01002700939C
:1002EC001E00089509E00093890000938B000BE930
:1002FC000093880000938A0000270093800009E097
:10030C000093810004E000936F0008950F920FB6E4
:10031C000F920F93F09AF19AF29AF39A00912F019F
:10032C000A9529F405E0F49AF59AF69AF79A00934F
:10033C002F010F910F900FBE0F9018950E94B201D4
:10034C0000270093320108E00093300103950093DD
:10035C0031010E94040208953A9A3B9A0895009143
:10036C00300100933101109330010895F59B0895ED
:10037C00F59800913201003019F0013041F00EC0B7
:10038C0020E00E94DA0101E000933201089521E09F
:10039C000E94DA0102E00093320108950E940F02DC
:1003AC0000E0009332010895203039F4439A109103
:1003BC0030010E94ED01429806C0429A1091310121
:1003CC000E94ED0143980FEF0AB91BB908955F9392
:1003DC00512F1F77F3E0E6EFE10F0027F01F149188
:1003EC00507809F01F775F910895C0F9A4B09992E5
:1003FC0082F880988883C6A1C989FFBF0027009323
:10040C00380100933901089500EF0AB90FEF0BB9C9
:10041C00089500913901003051F0013091F0023013
:10042C0019F1033049F100E0009339012CC00E940E
:10043C004A02222341F51093370101E00093390160
:10044C0008950E944A02222359F4009137010E9418
:10045C006B0210681093380102E000933901089583
:10046C0000E00093390108950E944A02222359F0BA
:10047C0003E00093390108950E944A02222319F0E7
:10048C0000E00093390108950E940A0210E122272E
:10049C00332710951BB9109500270A95F1F709B170
:1004AC0000950F70002331F4110F239522FFF1CF2B
:1004BC0021E008950695002311F03395FBCF220F10
:1004CC00220F230F122F222708951F70F4E0E6EE5F
:1004DC00E10F0027F01F149108950D0E000F0C0969
:1004EC0008070B0605040A030201449A0E948502C0
:1004FC00002700933A0104E600933C0108953C9ACE
:10050C003D98459A0895F49B12C0F49810913E01C1
:10051C00107231F035990BC013E010933E010AC0F4
:10052C00359B05C011E210933E0111E003C0109100
:10053C003E0112700895F69B52C0F69800913D0151
:10054C00002341F00A95F9F00A9569F10027009310
:10055C003D0145C000913C010A9500933C01F9F521
:10056C000AE000933C0100913A01002309F437C0E2
:10057C0000913D01039500933D0100913A010093D8
:10058C003B0144982CC000913C010A9500933C011E
:10059C0031F50AE000933C01449A00913D0103952A
:1005AC0000933D011CC000913C010A9500933C0155
:1005BC00B1F400913B010A9500933B0151F0449832
:1005CC000AE000933C0100913D010A9500933D0126
:1005DC0006C0002700933D0104E600933C010895FA
:1005EC0000913801007899F1109138011F70109327
:1005FC0038011A3031F41093310101E000933F01BE
:10060C0026C01B3031F41093310102E000933F01FE
:10061C001EC01C3031F41093310103E000933F01F4
:10062C0016C01D3031F41093310104E000933F01EA
:10063C000EC01E301F3000913F01013029F4109381
:10064C0030010E94570303C0023003300430009184
:10065C003F01023079F4F19B0895F198ACE1B1E0DF
:10066C0002E00D9304E20D9306950C9310E00E94AA
:10067C006A0008950330A1F4F79B0895F798009150
:10068C0041010A950093000109F0089504E60093D6
:10069C00000104E00093070111E00E946A00089534
:1006AC0008951770F6E0EAED110F110FE10F002716
:1006BC00F01FACE1B1E015911D9315911D931591AF
:1006CC001D9315911D9310E00E946A00089503126A
:1006DC00345603FEDCBA030F1E2C036789AB03AB45
:1006EC00CDEF03701B3603921A6303E385271127A2
:1006FC000D911027110F08F411602A95C9F7089570
:00000001FF
