:020000020000FC
:020000003DC001
:0200380055C2AF
:020040009AC064
:020060004FC08F
:020068004AC389
:10007C000FEF0DBF04E00EBF00E805BF05BF0E94E7
:10008C0097000E94A7000E94D3000E9466000E9465
:10009C0025010E94960401E000936E010E944D031D
:1000AC000E945D03789406E90093040104E0009338
:1000BC0005010E94FE000E949D040E946004F9CF7D
:1000CC0000EC00937C000FEA00937A0005E00093AB
:1000DC007B000FEF00937E000093020108952091A6
:1000EC00020110910001222321F4216020930201CE
:1000FC00222708950F920FB60F921F932F932091E2
:10010C007800109179001250209301011093000196
:10011C001127109302012F911F910F900FBE0F907A
:10012C0018950FE407BD02E004BD02E000936E00D9
:10013C0004E005BD0AE000930301002700931E00B4
:10014C00089509E00093890000938B000BE900935C
:10015C00880000938A0000270093800009E0009338
:10016C00810004E000936F0008950F920FB60F9278
:10017C000F93F09AF19AF29AF39A009103010A956F
:10018C0029F40AE0F49AF59AF69AF79A0093030187
:10019C000F910F900FBE0F9018950E94DF000CE08E
:1001AC00F1E0E4EE00930801F0930601E0930701FF
:1001BC0008953A9A3B9A3C9A3D9A0895F09106011B
:1001CC00E09107011591259110F011272227F0934A
:1001DC000601E09307010895080C040C1018081888
:1001EC002028082820301030101404142024042453
:1001FC00F09B0895F098009108010A9579F400910C
:10020C00050100930A010091040100930901F1E03A
:10021C00E4EEF0930601E09307010CE00093080173
:10022C0000910A01069500930A01009109010795B6
:10023C00009309010E94E40027B918B90895DD2440
:10024C00CC24BB24AA249924882400E200930E0118
:10025C0011E00E94380100E400930B0102E00093CE
:10026C006F010895F2E0E0EE110F0027E10FF01F8F
:10027C0065907490089500910001F02E0091010199
:10028C00E02E9B2C8A2CBD2CAC2C772D662D5B2D57
:10029C004A2D0E94E701110F221F331FC22ED32EAD
:1002AC00CE0CDF1CC818D90800910B010A950093DD
:1002BC000B0179F41D2D00910E01011714F401E0CE
:1002CC0001C000E000930D010E94250111E0209176
:1002DC000D0108956D6A825A1C47FB30F818000016
:1002EC0007E704CF649F8001749F100D569F100D7B
:1002FC0008952224759F9001649F8001749F100DB6
:10030C00211D321D569F100D211D321D0895759F04
:10031C00202D649F8001749F100D211D569F100D80
:10032C00211D0895222475029001649F800174039D
:10033C003209100D211D321D56033209100D211DDD
:10034C00321D08957502202D649F80017403100DD9
:10035C00211D5603100D211D08957502200D649F5B
:10036C00000D111D221D7403100D211D5603100DBF
:10037C00211D089522247502200D311D649F000D4E
:10038C00111D221D321D74033209100D211D321D49
:10039C0056033209100D211D321D089522247502B9
:1003AC002001649F000D111D241D351D740332099D
:1003BC00100D211D321D56033209100D211D321D49
:1003CC0008952224F50390016C03221D8001FC0387
:1003DC003209100D211D321DDE033209100D211DB5
:1003EC00321D08952224F503200D311D6C03221DAE
:1003FC00321D000D111D221D321DFC033209100D82
:10040C00211D321DDE033209100D211D321D0895F0
:10041C002224F50320016C03421C000D111D241D28
:10042C00351DFC033209100D211D321DDE0332096E
:10043C00100D211D321D08951F93169516951370DE
:10044C000E9450020E945B021F91137004E0100F77
:10045C000E9450020E9463020895B1E0A0E120E2E4
:10046C001C91105C110F1D932A95D1F7B1E0A0E1FE
:10047C0020E2B0933D01A0933E0120930F012EEF9B
:10048C0021B90895B1E0A0E110E200270D931A956F
:10049C00E9F70895F6E0EAE8110F0027E10FF01FE5
:1004AC0005911491E02FF12F0895B1E0A0E110E235
:1004BC0005910D931A95E1F70895B1E0A0E110E2D2
:1004CC0005912C91020F12F0889401C008940795A5
:1004DC000D931A95A9F708950EF018950F920FB673
:1004EC000F921F93BF93AF93B0913D01A0913E012A
:1004FC001D911E7F12B910910F011A9519F4B1E0DC
:10050C00A0E110E2B0933D01A0933E0110930F01C6
:10051C00AF91BF911F910F900FBE0F9018950023B4
:10052C003A3E2D0CE8CCC1CCE80C2D3E3A2300DD34
:10053C00C6C2D3F418343F3418F4D3C2C6DD002D30
:10054C003F2D00D3C1D3002D3F2D00D3C1D3002D9F
:10055C003F2D00D3C1D3002D3F2D00D3C1D3003488
:10056C003A0CD3C2E8233F23E8C2D30C3A3400CC74
:10057C00C6F42D3E18DDC1DD183E2DF4C6CC003A74
:10058C002DE8C1E82D3A00C6D3183F18D3C6003A5F
:10059C002DE8C1E82D3A00C6D3183F18D3C6003E4B
:1005AC0018CCD3233AF4C1F43A23D3CC183E00C26E
:1005BC00E8342DDDC60C3F0CC6DD2D34E8C2003FFF
:1005CC0000C1003F00C1003F00C1003F00C1003F1F
:1005DC0000C1003F00C1003F00C1003F00C1003E10
:1005EC00E8CC2D23C6F43FF4C6232DCCE83E00C244
:1005FC001834D3DD3A0CC10C3ADDD33418C2003AAE
:10060C00D3E83FE8D33A00C62D18C1182DC6003ADE
:10061C00D3E83FE8D33A00C62D18C1182DC60034D4
:10062C00C60C2DC21823C12318C22D0CC63400CC05
:10063C003AF4D33EE8DD3FDDE83ED3F43ACC002D6E
:10064C00C12D00D33FD3002DC12D00D33FD3002D9E
:10065C00C12D00D33FD3002DC12D00D33FD3002398
:10066C00C63ED30C18CC3FCC180CD33EC62300DDB1
:10067C003AC22DF4E834C134E8F42DC23ADD4A050F
:10068C006A058A05AA05CA05EA050A062A060CE5C2
:10069C000093B80000E00093B9000FEA0093BA0091
:1006AC0000270093BD0004E00093BC00089505EC06
:1006BC000093BC00089500914001002311F421E047
:1006CC0008950A9500934001A1E4B1E01C91222702
:1006DC0008950091560102310CF008950395009392
:1006EC005601A7E5B1E01C910895002700936C0119
:1006FC0008950F920FB60F920F931F930091B900AC
:10070C00087F083A89F0083B19F1003CE9F1003602
:10071C00F9F1003809F44EC0003A09F469C0003709
:10072C0009F46FC065C071C00CEC00930401AF9369
:10073C00BF93A7E5B1E00D910093BB00A0936901B5
:10074C00B0936A0101E000936B01BF91AF915DC062
:10075C0002E00093050100916B0110915601011705
:10076C0094F4039500936B01AF93BF93A09169012F
:10077C00B0916A010D910093BB00A0936901B093F5
:10078C006A01BF91AF9141C003E0009305013DC0E8
:10079C0001E40093530101E00093540100270093FE
:1007AC00400104E00093050100916D010E7F009360
:1007BC006D012BC005E0009305011091BB00009169
:1007CC004001023124F001E800936C011EC0AF938C
:1007DC00BF93039500934001A0915301B091540134
:1007EC001D93A0935301B0935401BF91AF910DC0D1
:1007FC0006E00093050100916D01016000936D010D
:10080C0004C007E00093050100C005EC0093BC0098
:10081C001F910F910F900FBE0F9018951EC0A1E461
:10082C00B1E0209140010E94F8042C91121709F0BC
:10083C0039C000914101007F003F21F401E0009399
:10084C006E0130C0003071F500916E010130C1F4C1
:10085C0000914101007F0030A9F7009141010F7018
:10086C00A1E4B1E0C1E3D1E01D9119930A95E1F740
:10087C001C911883009141010F700093390112C033
:10088C00023081F4009141010F7000935601A1E4F4
:10089C00B1E0C7E5D1E01D9119930A95E1F71C91E0
:1008AC00188300C000916D010E7F00936D010E94B2
:1008BC005D0308950E947500222351F400916F018D
:1008CC00027031F40E94410100910D01009304016A
:1008DC0000916D01017039F00E94140400916D01BA
:1008EC000E7F00936D0100916E01013031F4009187
:1008FC008401017011F00E94D904023001F403301C
:10090C0001F4043001F4F19B0895F19808950091DD
:10091C007001A2E7B1E00D91007F003001F4089561
:10092C0000270093390105E000933A010895F69BE6
:10093C0037C0F69820913A012A9520933A012F77E7
:10094C0079F520913A0127FF05C025E020933A0163
:10095C00E89426C025E820933A01209139012223FE
:10096C0001F1B1E0A1E317E02A951223A10F1127A1
:10097C00B11F122F107849F01C91107F12952395FE
:10098C002A952F772093390106C023952068209350
:10099C0039011C911F700E9422020E94330268943C
:1009AC000895E8940895A2E7B1E020917A010E949D
:1009BC00F8042C91121711F014C0089500916E01D7
:1009CC0012E0011771F0009141010F70A2E7B1E044
:1009DC00C7E5D1E01D9119930A95E1F71C91188395
:1009EC0000C0089511270D911027110F08F4116004
:0609FC002A95C9F70895D9
:00000001FF
