:100000000EC01DC01CC01BC01AC019C018C017C02C
:1000100016C015C014C013C012C095C0B0C01124C2
:100020001FBECFE5D2E0DEBFCDBF20E0A0E6B0E04E
:1000300001C01D92A93AB207E1F702D02BC1E0CF6F
:100040001092A6001092A700B99A80E43ED078944E
:1000500049D0D2E0C1E06ED08823E9F358D0909126
:10006000A6009130C1F018F09230D9F022C09091E2
:10007000A7009F5F9093A700843039F0853041F04E
:10008000813049F7C093A600E6CF892F30D0E3CF67
:10009000D093A600E0CF80FD1092A7001092A6009A
:1000A000DACF811102C0C19A01C0C1981092A60096
:1000B000D2CF1092A600CFCF109282001092830070
:1000C00010926000109261000895CF93C82FF4DF62
:1000D000C093A50087B3856087BBC29AC09AB898C1
:1000E000CF91089588EA8DB980EF8EB90895209157
:1000F00061002F5F2F71909160002917E1F3E22FCB
:10010000F0E0EE59FF4F80832093610008959091B5
:100110008300809182009817D1F3809182008F5FD5
:100120008F7180938200E0918200F0E0EC57FF4FE6
:1001300080810895209183009091820081E02913AD
:1001400001C080E008951F920F920FB60F92112404
:100150008F931092A400B898B29B02C0B09BFCCFC2
:10016000B09903C088EF8DB902C088EA8DB980EFDD
:100170008EB98F910F900FBE0F901F9018951F9200
:100180000F920FB60F9211248F939F93EF93FF93CB
:100190008091A400823009F451C028F4882359F0DA
:1001A000813069F16EC0843009F450C000F18530AF
:1001B00009F453C066C08FB1882331F08FB18695A2
:1001C0009091A50089130EC0789B04C081E08093B4
:1001D000A40003C084E08093A4001FB8B89A8EE7FF
:1001E0008EB94FC088EA8DB980E78EB94AC08FB109
:1001F000882329F088EA8DB980E78EB942C09091B2
:100200006100809160009817A1F0809160008F5F7D
:100210008F7180936000E0916000F0E0EE59FF4F35
:1002200080818FB982E08093A400B89A80E78EB96C
:1002300028C088EA8DB980E78EB923C083E0809317
:10024000A400B8981FB88EE78EB91BC085E08093D4
:10025000A400B89880E78EB914C0809183008F5FA6
:100260008F7180938300E09183008FB1F0E0EC57B1
:10027000FF4F808384E08093A4001FB8B89A8EE774
:100280008EB9FF91EF919F918F910F900FBE0F90BC
:080290001F901895F894FFCFB0
:00000001FF
