:100000000EC01DC01CC01BC01AC019C018C017C02C
:1000100016C015C07CC013C012C0DEC0F9C01124C8
:100020001FBECFE5D2E0DEBFCDBF20E0A0E6B0E04E
:1000300001C01D92AA3AB207E1F702D086C1E0CF13
:100040001092A6001092A7003CD055D080E486D034
:1000500084E03DD078948FD083E039D0D2E0C1E005
:10006000B2D08823E9F39CD09091A6009130C1F0E2
:1000700018F09230D9F022C09091A7009F5F909322
:10008000A700843039F0853041F0813049F7C093C2
:10009000A600E6CF892F74D0E3CFD093A600E0CF9F
:1000A00080FD1092A7001092A600DACF811102C045
:1000B0000AD001C00AD01092A600D2CF1092A6009A
:1000C000CFCFB99A0895C19A0895C1980895CF9352
:1000D000DF93882369F0D82FC0E0F7DF000000002D
:1000E0000000F1DF000000000000CF5FDC13F5CF5F
:1000F000DF91CF91089583E689BD82E08ABD90E1CA
:1001000099BF83BF8AE08093A90011BA08951F9216
:100110000F920FB60F9211248F93889A899A8A9A18
:100120008B9A8091A90081508093A900811107C00A
:100130008C9A8D9A8E9A8F9A8AE08093A9008F91DB
:100140000F900FBE0F901F90189510928200109282
:10015000830010926000109261000895CF93C82F21
:10016000F4DFC093A50087B3856087BBC29AC09AAD
:10017000B898CF91089588EA8DB980EF8EB9089527
:10018000209161002F5F2F71909160002917E1F39A
:10019000E22FF0E0EE59FF4F808320936100089535
:1001A00090918300809182009817D1F38091820012
:1001B0008F5F8F7180938200E0918200F0E0EC57B6
:1001C000FF4F80810895209183009091820081E00B
:1001D000291301C080E008951F920F920FB60F926D
:1001E00011248F931092A400B898B29B02C0B09BC8
:1001F000FCCFB09903C088EF8DB902C088EA8DB9F1
:1002000080EF8EB98F910F900FBE0F901F901895B1
:100210001F920F920FB60F9211242F933F934F937B
:100220005F936F937F938F939F93AF93BF93EF935E
:10023000FF9386E04CDF8091A400823009F451C026
:1002400028F4882359F0813069F16EC0843009F4B4
:1002500050C000F1853009F453C066C08FB18823C7
:1002600031F08FB186959091A50089130EC0789BCF
:1002700004C081E08093A40003C084E08093A400C4
:100280001FB8B89A8EE78EB94FC088EA8DB980E75B
:100290008EB94AC08FB1882329F088EA8DB980E7EA
:1002A0008EB942C090916100809160009817A1F0D2
:1002B000809160008F5F8F7180936000E09160009B
:1002C000F0E0EE59FF4F80818FB982E08093A40067
:1002D000B89A80E78EB928C088EA8DB980E78EB9D0
:1002E00023C083E08093A400B8981FB88EE78EB92E
:1002F0001BC085E08093A400B89880E78EB914C035
:10030000809183008F5F8F7180938300E0918300E1
:100310008FB1F0E0EC57FF4F808384E08093A4001E
:100320001FB8B89A8EE78EB9FF91EF91BF91AF9148
:100330009F918F917F916F915F914F913F912F91FD
:0E0340000F900FBE0F901F901895F894FFCFEE
:00000001FF
