:100000000C943E000C9448000C9448000C9448005A
:100010000C9448000C9448000C9448000C94480040
:100020000C9448000C9448000C9448000C94480030
:100030000C9448000C9448000C9448000C94480020
:100040000C9448000C9448000C9448000C94480010
:100050000C9448000C9448000C9448000C94480000
:100060000C9448000C9448000C9448000C944800F0
:100070000C9448000C9448000C94480011241FBEB6
:10008000CFEFD4E0DEBFCDBF0E944A000C947300D6
:100090000C94000084B5836884BD85B5816085BDFE
:1000A00090E497BD239AE0E8F0E080818168808346
:1000B000E1E8F0E080818960808320E430E03093E3
:1000C000890020938800559AE0EBF0E080818368F6
:1000D0008083E1EBF0E08081816080839093B300C6
:0A00E000579A0000FECFF894FFCFFE
:00000001FF
